:100000000C94020E0C94490E0C94490E0C94490E5B
:100010000C94490E0C94490E0C94490E0C94490E04
:100020000C94490E0C94490E0C94CA2D0C949E2EDF
:100030000C94FA280C94490E0C94490E0C94490E19
:100040000C94490E0C94490E0C94490E0C94490ED4
:100050000C94490E0C946D290C94490E0C94490E85
:100060000C94490E0C94490E0C94490E0C94490EB4
:100070000C94490E0C94490E0C94490E0C94490EA4
:100080000C94490E0C94490E0C94490E0C94490E94
:100090000C94490E0C94490E0C94490E0C94490E84
:1000A0000C94490E0C94490E0C94490E00007E7E6F
:1000B000183C6642000C1C70701C0C007474141404
:1000C0007C68007C7C0070782C247C7C0000000024
:1000D0000000000000000000000000000000000020
:1000E0000000000000008040402020202010101060
:1000F00010100808040404083040800000000000CC
:1001000000000000000000000000000000000000EF
:1001100000000000000000000000000000000000DF
:10012000000000000000000000808080000000004F
:10013000C06030180C84C6622333119171F1719143
:1001400011332362C6840C183060C0000000000028
:1001500000000000000000000000000000186482A1
:100160000202020202010000000080800000000084
:1001700000000000008000303000C0C1C1C204088F
:10018000102040800000008080808040404040205F
:10019000202020101010100808080808C404C40407
:1001A000C402C202C2010101010000000000FC0FF4
:1001B0000100F80E1F6D8C9494A4A6F9E0FFE0F9FD
:1001C000A6A494948C6D1F0EF800010FFC00000093
:1001D000000000000000000000000000C038040320
:1001E000000000000000000C0C0C0D010040A021DC
:1001F0002212111111090808080804040808101037
:10020000101010110F01010000000000000000009C
:10021000000000000000000000AAAAFFFFC3BF7F8B
:10022000037FBFC3FFFFAAAA0000000000001F78E1
:10023000C0000F387CDB9814141232CF03FF03CFB9
:100240003212141498DB7C380F00C0781F10101085
:100250001008080808080404040404020302020148
:10026000010101010102020404080808080807004E
:10027000000000000000000000000000000000007E
:10028000000000000000000000000000000000006E
:100290000000000000000000000282871F079F0787
:1002A0001C079F079F07028200000000201010100B
:1002B000110B0E0C18103123626644444747474423
:1002C000446662233110180C060301000000000090
:1002D000000000000000000000000000000000001E
:1002E000000000000000000000000000000000000E
:1002F00000000000000000000000000000000000FE
:1003000000000000000000000000000000000000ED
:1003100000000000000000000007080817000F019F
:1003200002010F000F02050800007E7E183C6642A5
:10033000000C1C70701C0C00747414147C68007C1D
:100340007C0070782C247C7C000000000000000001
:10035000000000000000000000000000000000009D
:1003600000008040402020202010101010100808AD
:100370000404040830408000000000000000000079
:10038000000000000000000000000000000000006D
:10039000000000000000000000000000000000005D
:1003A000000000000080808000000000C060301865
:1003B0000C84C6622333119171F171911133236260
:1003C000C6840C183060C00000000000000000006F
:1003D0000000000000000000001864820202020217
:1003E000020100000000808000000000000000000A
:1003F000008000303000C0C1C1C20408102040801D
:10040000000000808080804040404020202020105C
:100410001010100808080808C404C404C402C2026A
:10042000C2010101010000000000FC0F0100F80EF4
:100430001F6D8C9494A4A6F9E0FFE0F9A6A494940F
:100440008C6D1F0EF800010FFC0000000000000082
:100450000000000000000000C0380403000000009D
:100460000000000C0C0C0D010040A0212212111103
:1004700011090808080804040808101010101011C9
:100480000F0101000000000000000000000000005B
:100490000000000000AAAAFFFFC3BF7F037FBFC305
:1004A000FFFFAAAA0000000000001F78C0000F385C
:1004B0007CDB9814141232CF03FF03CF32121414D2
:1004C00098DB7C380F00C0781F1010101008080847
:1004D00008080404040404020302020101010101EA
:1004E00001020204040808080808070000000000D0
:1004F00000000000000000000000000000000000FC
:1005000000000000000000000000000000000000EB
:1005100000000000000282871F079F071C079F073B
:100520009F0702820000000020101010110B0E0C1B
:1005300018103123626644444747474444666223A7
:100540003110180C0603010000000000000000003C
:10055000000000000000000000000000000000009B
:10056000000000000000000000000000000000008B
:10057000000000000000000000000000000000007B
:10058000000000000000000000000000000000006B
:10059000000000000007080817000F0102010F000B
:1005A0000F02050800007E7E183C6642000C1C709D
:1005B000701C0C00747414147C68007C7C007078CF
:1005C0002C247C7C000000000000000000000000E3
:1005D000000000000000000000000000000000809B
:1005E00080404040402020202010080402020418CF
:1005F000608000000000000000000000000000001B
:1006000000000000000000000000000000000000EA
:1006100000000000000000000000000000000000DA
:100620000080808000000000C06030180C84C6622A
:100630002333119171F1719111332362C6840C1827
:100640003060C0000000000000000000000000005A
:1006500000000000003CC20101020204040201008B
:10066000000000000000000000000000000000602A
:100670006000818282840810204080000000008099
:100680008080804040404020202020101010100822
:1006900008080808C404C404C402C202C20101015B
:1006A000010000000000FC0F0100F80E1F6D8C948B
:1006B00094A4A6F9E0FFE0F9A6A494948C6D1F0E13
:1006C000F800010FFC000000000000000000000026
:1006D00000000000807019060000000000000018F3
:1006E00018181B030040A02224141212120B080831
:1006F0000808050509091010101010110F0101005C
:1007000000000000000000000000000000000000E9
:1007100000AAAAFFFFC3BF7F037FBFC3FFFFAAAA30
:100720000000000000001F78C0000F387CDB981428
:10073000141232CF03FF03CF3212141498DB7C382B
:100740000F00C0781F1010101008080808080404D3
:100750000404040203020201010101010102020476
:100760000408080808080700000000000000000056
:100770000000000000000000000000000000000079
:100780000000000000000000000000000000000069
:10079000000282871F079F071C079F079F0702828F
:1007A0000000000020101010110B0E0C1810312347
:1007B0006266444447474744446662233110180C3C
:1007C000060301000000000000000000000000001F
:1007D0000000000000000000000000000000000019
:1007E0000000000000000000000000000000000009
:1007F00000000000000000000000000000000000F9
:1008000000000000000000000000000000000000E8
:100810000007080817000F0102010F000F0205086A
:1008200000007E7E183C6642000C1C70701C0C00A0
:10083000747414147C68007C7C0070782C247C7C9C
:1008400000000000000000000000000000000000A8
:100850000000008080000000000080404020202038
:1008600020101010100804020101020C304080001A
:100870000000000000000000000000000000000078
:100880000000000000000000000000000000000068
:1008900000000000000000000000000000808080D8
:1008A00000000000C06030180C84C6622333119130
:1008B00071F1719111332362C6840C183060C0004D
:1008C0000000000000000000000000000000000028
:1008D000001EE10000010102020100000000808012
:1008E0000000000000000000008000303000C0C1A7
:1008F000C1C2040810204080000000808080804039
:10090000404040202020201010101008080808083F
:10091000C404C404C402C202C201010101000000F7
:100920000000FC0F0100F80E1F6D8C9494A4A6F932
:10093000E0FFE0F9A6A494948C6D1F0EF800010F5F
:10094000FC000000000000000000000000000000AB
:1009500080700C03000000000000000C0C0C0D0166
:100960000040A021221211111109080808080404EE
:1009700008081010101010110F01010000000000F5
:1009800000000000000000000000000000AAAAFF14
:10099000FFC3BF7F037FBFC3FFFFAAAA0000000001
:1009A00000001F78C0000F387CDB9814141232CF7F
:1009B00003FF03CF3212141498DB7C380F00C07889
:1009C0001F1010101008080808080404040404028A
:1009D00003020201010101010102020404080808E6
:1009E00008080700000000000000000000000000F0
:1009F00000000000000000000000000000000000F7
:100A000000000000000000000000000000028287DB
:100A10001F079F071C079F079F0702820000000017
:100A200020101010110B0E0C181031236266444474
:100A300047474744446662233110180C06030100FF
:100A400000000000000000000000000000000000A6
:100A50000000000000000000000000000000000096
:100A60000000000000000000000000000000000086
:100A70000000000000000000000000000000000076
:100A8000000000000000000000000000000708084F
:100A900017000F0102010F000F02050800007E7E03
:100AA000183C6642000C1C70701C0C00747414140A
:100AB0007C68007C7C0070782C247C7C000000002A
:100AC0000000000000000000000000000000000026
:100AD0000000000000008040402020202010101066
:100AE00010080804020202043840800000000000E0
:100AF00000000000000000000000000000000000F6
:100B000000000000000000000000000000000000E5
:100B10000000000000000000008080800000000055
:100B2000C06030180C84C6622333119171F1719149
:100B300011332362C6840C183060C000000000002E
:100B4000000000000000000000000000001CE201A6
:100B5000010202020201000000008080000000008B
:100B600000000000008000303000C0C1C1C2040895
:100B70001020408000000080808080404040402065
:100B8000202020101010100808080808C404C4040D
:100B9000C402C202C2010101010000000000FC0FFA
:100BA0000100F80E1F6D8C9494A4A6F9E0FFE0F903
:100BB000A6A494948C6D1F0EF800010FFC00000099
:100BC00000000000000000000000000080700C0326
:100BD000000000000000000C0C0C0D010040A021E2
:100BE000221211111109080808080404080810103D
:100BF000101010110F0101000000000000000000A3
:100C0000000000000000000000AAAAFFFFC3BF7F91
:100C1000037FBFC3FFFFAAAA0000000000001F78E7
:100C2000C0000F387CDB9814141232CF03FF03CFBF
:100C30003212141498DB7C380F00C0781F1010108B
:100C4000100808080808040404040402030202014E
:100C50000101010101020204040808080808070054
:100C60000000000000000000000000000000000084
:100C70000000000000000000000000000000000074
:100C80000000000000000000000282871F079F078D
:100C90001C079F079F070282000000002010101011
:100CA000110B0E0C18103123626644444747474429
:100CB000446662233110180C060301000000000096
:100CC0000000000000000000000000000000000024
:100CD0000000000000000000000000000000000014
:100CE0000000000000000000000000000000000004
:100CF00000000000000000000000000000000000F4
:100D000000000000000000000007080817000F01A5
:100D100002010F000F02050800007E7E183C6642AB
:100D2000000C1C70701C0C00747414147C68007C23
:100D30007C0070782C247C7C000000000000000007
:100D400000000000000000000000008080000000A3
:100D500000008040402020202010101010080402C5
:100D60000101020C30408000000000000000000083
:100D70000000000000000000000000000000000073
:100D80000000000000000000000000000000000063
:100D9000000000000080808000000000C06030186B
:100DA0000C84C6622333119171F171911133236266
:100DB000C6840C183060C000000000000000000075
:100DC0000000000000000000001EE1000001010220
:100DD0000281808000008080000000000000000090
:100DE0000080003030000001E11A06093135018A27
:100DF0007C000080808080404040402020202010E7
:100E00001010100808080808C404C404C402C20270
:100E1000C2010101010000000000FC0F0100F80EFA
:100E20001F6D8C9494A4A6F9E0FFE0F9A6A4949415
:100E30008C6D1F0EF800010FFC0000000000000088
:100E4000000000000000000080700C030000180685
:100E500005989984C37C4141404020212212111100
:100E60001109080808080404040404040202020129
:100E7000010101000000000000000000000000006F
:100E80000000000000AAAAFFFFC3BF7F037FBFC30B
:100E9000FFFFAAAA0000000000001F78C0000F3862
:100EA0007CDB9814141232CF03FF03CF32121414D8
:100EB00098DB7C380F00C0781F101010100808084D
:100EC00008080404040404020302020101010101F0
:100ED0000100000000000000000000000000000011
:100EE0000000000000000000000000000000000002
:100EF00000000000000000000000000000000000F2
:100F000000000000000282871F079F071C079F0741
:100F10009F0702820000000020101010110B0E0C21
:100F200018103123626644444747474444666223AD
:100F30003110180C06030100000000000000000042
:100F400000000000000000000000000000000000A1
:100F50000000000000000000000000000000000091
:100F60000000000000000000000000000000000081
:100F70000000000000000000000000000000000071
:100F8000000000000007080817000F0102010F0011
:100F90000F02050800007E7E183C6642000C1C70A3
:100FA000701C0C00747414147C68007C7C007078D5
:100FB0002C247C7C000000000000000000000000E9
:100FC0000000000000000080800000000000804061
:100FD0004020202020101010100804020101020CF3
:100FE00030408000000000000000F8F8F8F8000031
:100FF00000000080800000000000000000000000F1
:1010000000000000000000000000000000000000E0
:101010000080808000000000C06030180C84C66230
:101020002333119171F1719111332362C6840C182D
:101030003060C00000000000000000000000000060
:1010400000000000001EE10000010102028180801A
:1010500000008080000000000000000000800030E0
:10106000300000010102040810204387070100B886
:10107000BCBE9F5F5F4F4C20202020101010100836
:1010800008080808C404C404C402C202C201010161
:10109000010000000000FC0F0100F80E1F6D8C9491
:1010A00094A4A6F9E0FFE0F9A6A494948C6D1F0E19
:1010B000F800010FFC00000000000000000000002C
:1010C0000000000080700C03000018060598998449
:1010D000437C41414040202122121111110908088E
:1010E0000808040408081010101010110F013D7CAE
:1010F000FCFCFCFCFC3C0C000000000000000000BC
:1011000000AAAAFFFFC3BF7F037FBFC3FFFFAAAA36
:101110000000000000001F78C0000F387CDB98142E
:10112000141232CF03FF03CF3212141498DB7C3831
:101130000F00C0783F1010101008080808080404B9
:101140000404040203020201010101010100000084
:10115000000000000000000000000000000000008F
:10116000000000000000000000000000000000007F
:101170000001030300000000000000000000000068
:10118000000282871F079F071C079F079F07028295
:101190000000000020101010110B0E0C181031234D
:1011A0006266444447474744446662233110180C42
:1011B0000603010000000000000000000000000025
:1011C000000000000000000000000000000000001F
:1011D000000000000000000000000000000000000F
:1011E00000000000000000000000000000000000FF
:1011F00000000000000000000000000000000000EF
:101200000007080817000F0102010F000F02050870
:1012100000007E7E183C6642000C1C70701C0C00A6
:10122000747414147C68007C7C0070782C247C7CA2
:1012300000000000000000000000000000000000AE
:10124000000000808000000000008040402020203E
:1012500020101010100804020101020C3040800020
:10126000000000000000000000000000000000007E
:10127000000000000000000000000000000000006E
:1012800000000000000000000000000000808080DE
:1012900000000000C06030180C84C6622333119136
:1012A00071F1719111332362C6840C183060C00053
:1012B000000000000000000000000000000000002E
:1012C000001EE10000010102020100000000808018
:1012D000000000000000000000800030300000012D
:1012E000E11A06093135018A7C0000808080804047
:1012F0004040402020202010101010080808080846
:10130000C404C404C402C202C201010101000000FD
:101310000000FC0F0100F80E1F6D8C9494A4A6F938
:10132000E0FFE0F9A6A494948C6D1F0EF800010F65
:10133000FC000000000000000000000000000000B1
:1013400080700C030000000000000000000001019C
:101350000040A021221211111109080808080404F4
:101360000404040402020201010101000000000063
:1013700000000000000000000000000000AAAAFF1A
:10138000FFC3BF7F037FBFC3FFFFAAAA0000000007
:1013900000001F78C0000F387CDB9814141232CF85
:1013A00003FF03CF3212141498DB7C380F00C0788F
:1013B0001F10101010080808080804040404040290
:1013C000037A7A79797979393102020404080808B4
:1013D00088888780000000000000000000000000F6
:1013E00000000000000000000000000000000000FD
:1013F00000000000000000000000000000028287E2
:101400001F079F071C079F079F070282000000001D
:1014100020101010110B0E0C18103123626644447A
:1014200047474744446662233110180C0603010005
:1014300000000000000000000000000000000000AC
:10144000000000000030787CFEFF3F070000000035
:10145000FFFF7F7F3F3E1C180000000000000000DF
:10146000000000000000000000000000000000007C
:101470000000000000000000000000000007080855
:1014800017000F0102010F000F0205082020202085
:10149000202020004341505300290014000800156B
:1014A0000017001C000C0013002F002A004C002B1A
:1014B000001A00160009000A00180012000F003080
:1014C000003100A800E10004000700060005000B41
:1014D000000E003300340028005200E0001D001B05
:1014E00000190011000D00360037003800E50051EA
:1014F00000E300E2002C002C002C001000E60001AC
:1015000051E40050004F0035001E00200021002251
:10151000002300250027002D004C004E0039001F3D
:10152000003B003D003E002400260042002E004506
:10153000004B0001003A003C00010001003F004167
:1015400000430044000100005C01000100010001B3
:101550000001004000010001000100010001000144
:101560000001000100010001000100010001000173
:10157000000100000000AE00AF00DA0281FFD9F1E7
:10158000DB20A4A62EAF00A0C000A1C800AED5806D
:10159000A81FD300408D14200007087F0807003ED5
:1015A0005B4F5B3E003E6B4F6B3E001C3E7C3E1C27
:1015B00000183C7E3C18001C577D571C001C5E7FA9
:1015C0005E1C0000183C180000FFE7C3E7FF0000A6
:1015D0001824180000FFE7DBE7FF0030483A060E4A
:1015E00000262979292600407F05050700407F0550
:1015F000253F005A3CE73C5A007F3E1C1C0800086F
:101600001C1C3E7F0014227F2214005F5F005F5F7E
:101610000006097F017F00006689956A00606060AE
:1016200060600094A2FFA2940008047E04080010E9
:10163000207E20100008082A1C0800081C2A080820
:10164000001E10101010000C1E0C1E0C0030383E36
:10165000383000060E3E0E060000000000000000BC
:10166000005F000000000700070000147F147F14D3
:1016700000242A7F2A120023130864620036495688
:10168000205000000807030000001C224100000059
:1016900041221C00002A1C7F1C2A0008083E080862
:1016A0000000807030000008080808080000006092
:1016B0006000002010080402003E5149453E000031
:1016C000427F4000007249494946002141494D335B
:1016D000001814127F10002745454539003C4A493F
:1016E0004931004121110907003649494936004670
:1016F0004949291E00000014000000004034000089
:101700000000081422410014141414140000412293
:101710001408000201590906003E415D594E007C43
:101720001211127C007F49494936003E4141412255
:10173000007F4141413E007F49494941007F0909FD
:101740000901003E41415173007F0808087F0000F5
:10175000417F4100002040413F01007F08142241A9
:10176000007F40404040007F021C027F007F040851
:10177000107F003E4141413E007F09090906003EBD
:101780004151215E007F0919294600264949493205
:101790000003017F0103003F4040403F001F204005
:1017A000201F003F4038403F0063140814630003CB
:1017B00004780403006159494D4300007F414141D1
:1017C00000020408102000004141417F0004020192
:1017D0000204004040404040000003070800002091
:1017E00054547840007F2844443800384444442806
:1017F00000384444287F0038545454180000087EB0
:1018000009020018A4A49C78007F08040478000052
:10181000447D4000002040403D00007F10284400EF
:101820000000417F4000007C04780478007C0804BC
:10183000047800384444443800FC18242418001864
:10184000242418FC007C0804040800485454542440
:101850000004043F4424003C4040207C001C204005
:10186000201C003C4030403C004428102844004CE0
:101870009090907C004464544C4400000836410031
:10188000000000770000000041360800000201025D
:101890000402003C2623263C00000000000000401B
:1018A0004040F0F8F8FF38FFF8F83FF8F8FF38FF4D
:1018B000F8F8F040404000000000000080C0C0C0C8
:1018C000800000C0C08000000080C0C000C0C00018
:1018D0000080C0C00000000000C0C0C0C0C000C088
:1018E000C000000000000000000000000000000038
:1018F00000000000000000000000000000000000E8
:1019000000000000000000000000000000000000D7
:101910000000000000000000C0F0F8FC3E1E0601C0
:101920000000007F4141417F007F4141417F000035
:1019300080C0E07E5B4F5BFEC00000C000DCD7DEF5
:10194000DEDED7DC00C00000000000000000000068
:10195000000000000000000000000000000000493E
:101960004949FFFFFFFFE0DFBFBF00BFBFDFE0FF70
:10197000FFFFFF49494900000000001F3F6060E091
:10198000BF1F007F7F071E381E077F7F007F7F0EEF
:101990001F3B716000000000007F7F0C0C0C007E7C
:1019A0007E007F7E0303007F7E03037E7E03037F32
:1019B0007E000F3E703C063C703E0F00327B494972
:1019C0003F7E007F7E0303001E3F69696F26000093
:1019D0000000000000000000030F1F3F3C78706013
:1019E0000000007F4141417F007F4141417F003045
:1019F0007B7F7830202030787F3B0003000F7F0F03
:101A00000F0F7F0F00030000000000000000000027
:101A100000000000000000000000000000000001C5
:101A20000101070F0F7F0F7F0F0F7E0F0F7F0F7FBB
:101A30000F0F07010101000000000000000000007E
:101A40000101000000000000000000000000000094
:101A50000000000000000000000000000000000086
:101A60000000000000000000000000000000000076
:101A70000000000000000000000000000000000066
:101A80000000000000000000000000000000000056
:101A90000000000000000000000000000000000046
:101AA0000000000000000000000000000000000036
:101AB0000000000000000000000000000000000026
:101AC0000000000000000000000000000000000016
:101AD00000000000000000000012034600720075C4
:101AE0000069007400620061007200000016036665
:101AF00000720075006900740079006B0065006574
:101B000000620000000403090409023B0002010016
:101B1000A0FA0904000001030101000921110100DC
:101B2000012240000705810308000A0904010001A1
:101B300003000000092111010001226D0007058248
:101B40000320000A12010002000000086B666266B2
:101B500001000102000105010980A10185031901AD
:101B60002AB700150126B700950175108100C00540
:101B70000C0901A101850419012AA002150126A062
:101B800002950175108100C005010906A1018506B5
:101B9000050719E029E7150025019508750181025F
:101BA0000507190029EF1500250195F0750181023F
:101BB000050819012905950575019102950175031F
:101BC0009101C005010906A101050719E029E715E2
:101BD00000250195087501810295017508810105AF
:101BE00007190029FF150026FF00950675088100DA
:101BF00005081901290595057501910295017503DF
:101C00009101C00011241FBECFEFDAE0DEBFCDBFCF
:101C100004B603FE27C08091320590913305A09150
:101C20003405B09135058730904BA740B04BD1F4C7
:101C3000109232051092330510923405109235053A
:101C400014BE84B7877F84BF0FB6F894A89580919F
:101C50006000886180936000109260000FBEE0E039
:101C6000F8E3099511E0A0E0B1E0E0E7F8E602C092
:101C700005900D92AC3AB107D9F725E0ACEAB1E096
:101C800001C01D92A233B207E1F70E94B11F0C946C
:101C90000E340C9400000E946E258531E8F480918A
:101CA000AF0190E0019665E070E00E947030809393
:101CB000AF0124E030E0281B390B4CE752E0249FB1
:101CC000C001259F900D349F900D11246CE772E0A8
:101CD00084559F4F0E945F210E946E25853150F0F0
:101CE0000E946E25883230F46CE772E088E19DE056
:101CF0000E945F210E946E258832D8F08091AE014B
:101D000090E00196817099278093AE0121E030E048
:101D1000281B390B4CE752E0249FC001259F900DF2
:101D2000349F900D11246CE772E08C56904F0C9408
:101D30005F210895CF930E946E25882309F457C030
:101D40000E949F216091B4017091B5018091B6010C
:101D50009091B7010E945129693C71058105910557
:101D600060F00E9436296093B4017093B5018093AE
:101D7000B6019093B7010E944B0E0E9436296093E2
:101D8000B0017093B1018093B2019093B30160E010
:101D900080E00E944E200E946E251F928F9389E161
:101DA00091E09F938F938BEF92E09F938F930E948C
:101DB000033160E08BEF92E00E9431210E94942772
:101DC000C82F61E080E00E944E200F900F900F908E
:101DD0000F900F900F908CE894E1C1FF02C084E94E
:101DE00094E160E00E944D2180E0CF9108956091E0
:101DF000B0017091B1018091B2019091B3010E9444
:101E0000512961367A4E8105910518F00E94BB2256
:101E1000BECF6091B4017091B5018091B6019091EF
:101E2000B7010E945129693C71058105910508F4AB
:101E3000AECF0E9436296093B4017093B5018093B0
:101E4000B6019093B7010E944B0EA1CF811107C03C
:101E5000662339F06AE070E089EA0E94351180E07B
:101E600008956AE070E08AEAF8CF81E0089581E0A1
:101E700008950C94370F08950C943B0F1F93CF9344
:101E8000DF9300D000D00F92CDB7DEB749835A83DD
:101E90006B833091B80189819A8131111DC066230D
:101EA000B9F02223A9F00E948915182F682F898183
:101EB0009A810E94351569817A81812F0F900F9048
:101EC0000F900F900F90DF91CF911F910C940F1CEA
:101ED0000E946115182FEFCF0E94891569817A81C0
:101EE000EDCFFC01262F4081518162817381848175
:101EF0000C943E0F81E00895CF93DF93EC0160E0F6
:101F00000E94710FBE01DF91CF910C943C0F0E9493
:101F10002D1E0E9410100C94521E0E94A7250C9496
:101F2000551E80E00E9411100C94BB220895089564
:101F30000E94DE130E94970F2FEF84E39CE0215054
:101F400080409040E1F700C000000C9491290F936D
:101F50001F93CF93DF938C0161E00E94710FEC011E
:101F6000F8018281882319F0CE010E949A25B801D8
:101F7000CE010E94390F8823A9F1B801CE010E9439
:101F80001C25882379F1B801CE010E9404238823FF
:101F900049F1B801CE010E948624882319F1F80185
:101FA0008281882361F0CB35FDE5DF0721F170F4F4
:101FB000C115ECE5DE07A1F0CF3DDC45C9F0C80155
:101FC000DF91CF911F910F910C94350FCC358DE59A
:101FD000D807A1F0CD35DD4591F70E94361AEFCF35
:101FE0000E94980F80E0DF91CF911F910F9108958B
:101FF0000E94F01AF7CF0E943F1AE1CF0E94421AC6
:10200000DECF0C94960F0E9488270E9411100C942A
:10201000011008950C94091081E008950C940C109F
:102020000895CF93C82F0E940A108C2FCF910C9443
:102030000E10CF93DF93CDB7DEB72B970FB6F89482
:10204000DEBF0FBECDBF4F83588769877A878B87E6
:1020500061110E9484191E821D8285E0FE0137965F
:10206000DE01119601900D928A95E1F78C819D8198
:10207000892B89F449815A816B817C818D819E8174
:102080000E94A5182B960FB6F894DEBF0FBECDBFE9
:10209000DF91CF91089589819A8189238F3F51F3F0
:1020A000CE0101960E947A0F8111E4CFEBCFFC01A3
:1020B000808191810C94CB15CF93C82F882309F48C
:1020C00083C08238C1F40E94882781FD7DC089E3E6
:1020D0000E943F190E94B4192FEF81EE94E0215025
:1020E00080409040E1F700C0000089E30E9446195B
:1020F000CF910C94B4198338A1F40E94882780FDF5
:1021000063C083E50E943F190E94B4192FEF81EE4E
:1021100094E0215080409040E1F700C0000083E54A
:10212000E5CF8438A1F40E94882782FD4DC087E462
:102130000E943F190E94B4192FEF81EE94E02150C4
:1021400080409040E1F700C0000087E4CFCF8CEFE3
:102150008C0F813A90F46C2F8091020190910301D1
:102160000E94F127882329F08C2F0E9446190E9493
:10217000B4198C2F0E943F19BBCF80E28C0F88309E
:1021800048F4C77081E001C0880FCA95EAF70E9441
:102190006719AECFEBE5EC0FE33040F4F0E0E05B25
:1021A000FE4F808190E0CF910C94B127C85AC7317F
:1021B00058F4EC2FF0E0EE0FFF1FEE5DFE4F808134
:1021C0009181CF910C94C727CF910895882309F46A
:1021D0004BC0823871F40E94882781FF45C089E393
:1021E0000E943F190E94B41989E30E9446190C9479
:1021F000B419833859F40E94882780FF35C083E5DD
:102200000E943F190E94B41983E5EFCF843859F436
:102210000E94882782FF28C087E40E943F190E94FD
:10222000B41987E4E2CF9CEF980F913AF0F290E274
:10223000980F983050F4877091E001C0990F8A95FB
:10224000EAF7892F0E946D19D2CF9BE5980F933042
:1022500020F490E080E00C94B127885A873120F474
:1022600090E080E00C94C72708951F93CF93DF93ED
:10227000182FEB010E945C10209731F4812FDF9121
:10228000CF911F910C94E6108FE99FE00197F1F731
:1022900000C000002197F0CF70E060E0893311F4B6
:1022A00060E570E00C943511882321F00E946719D5
:1022B0000C94B4190895882321F00E946D190C9490
:1022C000B4190895BF92CF92DF92EF92FF920F93CD
:1022D0001F93CF93DF936C01D62FC72FFC01128180
:1022E000F580F2949FE0F9220E945D19E82E882380
:1022F000B9F0E12E1123A1F08C2F807F803421F0E2
:1023000080E28D0F8830B0F08091060382FD12C00C
:1023100082E00E94051A0E945D1991E0E82EE926EC
:10232000BC2EB2948FE0B822EB2DF0E0E05FFB4CC6
:102330000C94C530E12CF4CF0C2F0F70C07F11F03E
:102340000295007F112399F0002359F080E28D0F50
:10235000883010F0D11107C0802F0E9467190E94A9
:10236000B4198D2F41C0802F0E947719F8CF8D2F7F
:102370000E94E610002309F43FC080E28D0F8830F0
:1023800010F0D11104C0802F0E946D1903C0802F5E
:102390000E947D190E94B4192FC00C2F0F70C07FAE
:1023A000C03211F00295007FDD2381F0D13009F4B5
:1023B00069C0112309F473C0FF2009F469C0F60154
:1023C000858180FFCECF8F70858362C080910603A8
:1023D00082FF38C0112359F0002329F0802F0E947A
:1023E00067190E94B41980E00E945C1005C080E06B
:1023F0000E94E6100111C7CFEB2DE850FF0B349778
:1024000020F40E9488270E941110EE2009F477C161
:102410000E94591980FD73C1F60112820E9453195E
:102420000E949914C6010E94A0130E945319DF91C3
:10243000CF911F910F91FF90EF90DF90CF90BF90C1
:102440000C94BA14112389F0F11006C00E94971958
:10245000802B0E945411D0CFF1E0FF12F7CF0E94E1
:102460009719802B0E949D19C7CFF11006C00E94BA
:10247000AA19802F0E945B11BFCF21E0F21609F448
:10248000BBCFF5CF112331F035E03F1508F4B4CFC1
:10249000802FDFCF84E08F1508F4AECFEACFFF2086
:1024A00041F3D93349F4FFEF27EE33E0F1502040F8
:1024B0003040E1F700C000008D2F0E94E6109CCF55
:1024C0008C2F86958695837069F0813009F094CFC2
:1024D0008D2F9C2F9370111102C090E080E00E941C
:1024E000C7278ACF8D2F9C2F9370111102C090E0C7
:1024F00080E00E94B12780CF8C2F837009F041C00B
:1025000011117ACF4D2F429546954770440F440FD5
:102510000D2F0F7010E030E020E0042E04C0000FFB
:10252000111F221F331F0A94D2F760E070E0CB0125
:10253000D4FF0FC06FE070E080E090E004C0660F51
:10254000771F881F991F4A95D2F7609570958095DF
:102550009095C695C695C370602B712B822B932BDB
:10256000C23049F058F4C13019F00E944B1444CFE6
:102570000E94391441CF0E945D143ECF0E9437144F
:102580003BCF8695112311F08C2F8170882309F49D
:1025900033CF4D2F429546954770440F440F0D2F72
:1025A0000F7010E030E020E0042E04C0000F111F77
:1025B000221F331F0A94D2F760E070E0CB01D4FFF2
:1025C0000FC06FE070E080E090E004C0660F771FFE
:1025D000881F991F4A95D2F76095709580959095C0
:1025E000C695C695C370602B712B822B932BC2307E
:1025F00049F058F4C13019F00E941015FDCE0E9428
:10260000FE14FACE0E942215F7CE0E947314F4CE67
:10261000CF70112329F08C2F0E9499148D2F19CF80
:102620008D2F0E945B118C2F0E94BA14E5CED23FF1
:1026300051F160F4D03FB9F0D13F81F0112309F49A
:1026400049C0F1108ECE8C2F8F7121C0D33F11F174
:10265000D43FA1F78091060382FF26C08C2F8F7193
:10266000112311F314C0112349F084E08F1508F4ED
:10267000C3CE8C2F8F710E94DD14BECE95E09F15C6
:1026800008F4BACEF6CF8C2F8F711111CDCF0E94E6
:102690009914B2CE112329F08C2F8F710E948414CB
:1026A000ABCE0E947F14A8CE112349F0CF718C2F9E
:1026B0000E94991463E08C2F0E94EA199DCE81E05C
:1026C0000E94051AE1E0EF1508F096CE82E00E9424
:1026D000051A92CEF110E5CE8C2F8F71A5CF4C2F1D
:1026E0004F706D2FC6010E940B1C0E94F91584CEFD
:1026F0004C2F4F706D2FC6010E940E1C7DCEDF91B6
:10270000CF911F910F91FF90EF90DF90CF90BF90EE
:1027100008950F931F93CF93DF93EC016881798124
:102720008A810E94D5158C010E9434150E943614AE
:10273000B801CE01DF91CF911F910F910C946211DE
:10274000CF93DF93EC018B819C81892B29F08881C9
:10275000998189238F3F59F4DF91CF910895CE015C
:102760000E948913CE01DF91CF910C947C0FCE0192
:102770000E94A70F8111F3CF0E945D19882361F396
:102780008A81882349F38091060382FDE5CF82E0A8
:10279000DF91CF910C94051A90E080E00E94B12760
:1027A00090E080E00E94C7270E9484190E9494193B
:1027B0000C94B4190E944D190C94CC130E947419F6
:1027C0000C94DA13E92FE295EF70E250EE3070F4DA
:1027D000F0E0E05EFB4C0C94C530803F19F020F433
:1027E000883E20F481E00895843FE1F380E008957D
:1027F000883EC0F3813FD1F7F5CF93FB882780F95E
:102800000895FC01808191810E94CB150C94E21304
:10281000CF93DF9300D000D00F92CDB7DEB70F90EB
:102820000F900F900F900F90DF91CF910895CF935D
:10283000DF9300D000D000D0CDB7DEB726960FB61C
:10284000F894DEBF0FBECDBFDF91CF9108950895FC
:102850000C9427140E9428146093E0017093E10106
:102860008093E2019093E3010C94CC1308950C94AF
:102870002A140F931F930091E0011091E101209120
:10288000E2013091E301602B712B822B932B1F917E
:102890000F910C942A140F931F930091E001109153
:1028A000E1012091E2013091E30160237123822351
:1028B00093231F910F910C942A140F931F9300914F
:1028C000E0011091E1012091E2013091E3016027E4
:1028D0007127822793271F910F910C942A140C942F
:1028E00027140C946F140E9471146093DC01709390
:1028F000DD018093DE019093DF010C94CC1360E046
:1029000070E0CB010C9473140F931F9341E050E0DF
:1029100060E070E08A019B0104C0000F111F221FBC
:10292000331F8A95D2F7C901B8011F910F910C94FA
:1029300073140F931F9341E050E060E070E004C017
:10294000440F551F661F771F8A95D2F78091DC01CF
:102950009091DD01A091DE01B091DF018A019B0120
:10296000082B192B2A2B3B2BC901B8011F910F9162
:102970000C9473140F931F9341E050E060E070E0FB
:1029800004C0440F551F661F771F8A95D2F7CB01ED
:10299000BA0160957095809590950091DC01109139
:1029A000DD012091DE013091DF016023712382235C
:1029B00093231F910F910C9473140F931F9341E075
:1029C00050E060E070E004C0440F551F661F771FA1
:1029D0008A95D2F78091DC019091DD01A091DE0112
:1029E000B091DF018A019B01082719272A273B277D
:1029F000C901B8011F910F910C9473140F931F9389
:102A00000091DC011091DD012091DE013091DF01A8
:102A1000602B712B822B932B1F910F910C947314AD
:102A20000F931F930091DC011091DD012091DE01D5
:102A30003091DF0160237123822393231F910F9133
:102A40000C9473140F931F930091DC011091DD011E
:102A50002091DE013091DF016027712782279327C3
:102A60001F910F910C94731408952BE0929F800D89
:102A70001124982F977041E001C0440F9A95EAF70E
:102A800086958695869595E0899FF0011124E754F7
:102A9000FE4F90E080E070E05191DF0111979B01C3
:102AA000082E02C0369527950A94E2F721702195E9
:102AB0002527242325272C9301968530910561F73E
:102AC00008952BE0929F800D1124982F9770869582
:102AD0008695869525E0829FF0011124E754FE4FEC
:102AE00050E040E080E0219130E0092E02C03695B0
:102AF00027950A94E2F721703327042E01C0220F94
:102B00000A94EAF7822B4F5F5F4F4530510559F722
:102B10000895BF92CF92DF92EF92FF920F931F938F
:102B2000CF93DF938C01C090DC01D090DD01E09069
:102B3000DE01F090DF018091E0019091E101A09130
:102B4000E201B091E301C82AD92AEA2AFB2ACFE19F
:102B5000D0E0BC2ED701C6010C2E04C0B695A795B7
:102B6000979587950A94D2F780FD0EC0219788F734
:102B7000B12C8B2DDF91CF911F910F91FF90EF9092
:102B8000DF90CF90BF900895B8018C2F0E94351D23
:102B9000019761F3EECFCF93DF93EC010E9489158B
:102BA000BE01DF91CF910C94351D1F93CF93DF931E
:102BB000EB019091B801992331F0CB01DF91CF91D6
:102BC0001F910C94CB15882379F0CB010E948915B5
:102BD000182F682FCE010E943515BE01812FDF917D
:102BE000CF911F910C94351DCB010E946115182FB8
:102BF000F4CFEF92FF920F931F93CF93DF938C014B
:102C0000892B81F0F12CEE24E394E8012196F80160
:102C10008491843770F4843008F05FC08130B1F063
:102C20008230A1F1DF91CF911F910F91FF90EF9032
:102C30000895853709F44CC008F43DC09CE7980F0F
:102C4000903780F78F770E94E61049C00E5F1F4FC4
:102C5000FE01849190E2980F983060F48770FE2D09
:102C600001C0FF0F8A95EAF78F2F0E9487190E94F3
:102C7000B41902C00E945C108F2D815030F2EFE930
:102C8000FFE03197F1F700C00000F7CF0E5F1F4F54
:102C9000FE01849190E2980F983050F48770FE2DD9
:102CA00001C0FF0F8A95EAF78F2F0E948D19DFCFA1
:102CB0000E94E610E1CF0E5F1F4FFE01C491C1508C
:102CC000D8F28FE99FE00197F1F700C00000F7CF3D
:102CD0000E5F1F4FFE01F490CFCF0E945C108E015B
:102CE000CBCF1F93CF93DF93C091E40116E0809187
:102CF000E5018C1304C0DF91CF911F910895D0E0BE
:102D00001C9FF0011D9FF00D1124EA51FE4F4081E0
:102D1000518162817381848195810E94171421966B
:102D2000C770E5CF409116025091170260911802CA
:102D30007091190280911A0290911B020C94171441
:102D4000FF920F931F93CF93DF9380911B02807F9D
:102D5000D1F4809118028823B1F08091E4011091A0
:102D6000E5016091160270911702A0911902B091CD
:102D70001A02062F0723C0910001D091010196E0AD
:102D8000F92E181306C0DF91CF911F910F91FF907C
:102D9000089590E0109711F00F3F19F40196877095
:102DA000F0CFF89E9001F99E300D1124F901EA51FF
:102DB000FE4F41814713F2CF40814613EFCF42814E
:102DC0004111ECCF438154814A1B5B0B4C175D07CB
:102DD00028F780911B028F70806180931B02F9019C
:102DE000E551FE4F80818F708061808386E192E0A3
:102DF0000E94A013DF91CF911F910F91FF900C942F
:102E00007116AF92BF92CF92DF92EF92FF920F9323
:102E10001F93CF93DF93CDB7DEB761970FB6F894CA
:102E2000DEBF0FBECDBF8C0185E0F801DE011D962F
:102E300001900D928A95E1F7F801E28086E1C82EB3
:102E400082E0D82E6091190270911A026115710505
:102E500009F45FC19091160220911702892F8223F5
:102E60008F3F09F456C140815181A380B480F09016
:102E70001802F501E61BF70BBF01E0910001F0918C
:102E80000101FF2009F4F6C080911B02382F307F2A
:102E90006E177F0708F0AFC0311179C0FE2C2513E3
:102EA00023C0941321C0E1101FC08F7080618093F4
:102EB0001B020E949216C6010E94A01380911B0261
:102EC000F80185838F2D61960FB6F894DEBF0FBE93
:102ED000CDBFDF91CF911F910F91FF90EF90DF90C9
:102EE000CF90BF90AF900895AB2829F0842F852311
:102EF0008F3F09F027C180E0F82FF170DF2E80FFAF
:102F00003CC08091E4012091E50136E0821315C0B8
:102F10004D875E878D859E850E94CB15292F229532
:102F20002F702230F0F0243018F59F70F1F0F80186
:102F30009581907FD1F4D12C1EC090E0389FF00194
:102F4000399FF00D1124EA51FE4F6181651306C0CF
:102F50006081641303C062816E110FC00196877097
:102F6000D5CF9F7011F0882331F3805E883018F33D
:102F7000C8010E94A013FD2CA5CFEE2009F4A2CF1A
:102F800080911B02816080931B02F12C9BCF251343
:102F900006C0941304C0F801EE2009F487C0C801EC
:102FA0000E940114882319F1EE2009F180911B027F
:102FB000803270F0209116023091170238872F83EB
:102FC0001986BB86AA868C87CE0107960E94A0131D
:102FD00086E0F801A6E1B2E001900D928A95E1F752
:102FE0000E94A0160E949216FF24F3946BCFC80192
:102FF0000E94A013F9CF311113C07A2DB98AA88A83
:103000006E2D89890E94081486E192E00E94A01327
:1030100086E0F60111928A95E9F70E949216B5CFE3
:1030200025130FC094130DC0E1100BC0F801858368
:10303000C8010E94A01386E0F60111928A95E9F773
:1030400041CFC8010E940114882389F2EE2079F251
:1030500080911B02803208F4BBCF20911602309180
:1030600017023A8329831B82BD82AC828E83CE01F4
:103070000196ACCF6E177F0708F03EC0FE2CEE2005
:1030800009F4B5CF25132AC0941328C080911B02E0
:1030900080FD1BC0982F907FC1F0F8018583903F81
:1030A00031F0982F907F905F8F70892B8583C801B6
:1030B0000E94A01386E0F801A6E1B2E001900D9213
:1030C0008A95E1F70E949216FDCE86E0F801A6E10E
:1030D000B2E001900D928A95E1F7F4CEC8010E940A
:1030E0000114811175CF80911B02816080931B02B6
:1030F000C8010E94A013E6CE7A2DB98AA88A6E2D47
:1031000089890E94081486E0F60111928A95E9F7F0
:10311000D9CFEE2009F46BCFC8010E940114F82E1C
:10312000882309F464CF86E0F801A6E1B2E00190BB
:103130000D928A95E1F786E192E00E9457100E9475
:10314000A016C0CF81E08E25D7CE1F93CF93DF93FB
:10315000CDB7DEB72C970FB6F894DEBF0FBECDBF4C
:103160004F83588769877A878B879C87CE0107961C
:103170000E940117882369F08A859B85892B39F085
:103180004F815885842F85238F3F09F071C016E049
:103190005FC086E0FE013796DE01119601900D9228
:1031A0008A95E1F78A859B85892B89F38F8198859C
:1031B00089238F3F61F32091E50130E0C901019639
:1031C000877099274091E4014817190671F40E940D
:1031D000DE131092E5011092E40186E0E6E1F2E0F0
:1031E000DF011D928A95E9F7D2CF96E0929FD00138
:1031F000939FB00D1124AA51BE4FFE01319601904C
:103200000D929A95E1F78093E5010E947116BFCF68
:10321000819FC00111248A519E4F0E94011788236B
:10322000E9F0E091E4011E9FF0011124EA51FE4F04
:103230004081518162817381848195810E9417143C
:103240008091E40190E00196877099278093E401D2
:103250008091E4019091E5018913DACF2C960FB6A5
:10326000F894DEBF0FBECDBFDF91CF911F910895BF
:1032700069857A858B859C850E94171488CF682F75
:1032800080910201909103010C947128682F809124
:103290000201909103010C947C288091020190918D
:1032A00003010C94872880911C028595859585954E
:1032B000089580911C028770089590911C02977068
:1032C00081E009F480E00895809140020895909192
:1032D0004002892B8093400208958095909140028E
:1032E000982390934002089510924002089590917F
:1032F0003F02892B80933F020895809590913F0271
:10330000982390933F02089510923F020895909160
:103310003E02892B80933E020895809590913E0253
:10332000982390933E02089510923E020895809152
:103330001D02089508950C949A199091060392FD28
:1033400008C090911D02981721F080931D020C94E3
:103350009B19089580911D02882329F010921D0267
:1033600080E00C949B190895E0910201F091030113
:10337000809140028083E0910201F09103018081FD
:1033800090913F02892B8083E0910201F09103012B
:10339000808190913E02892B808390911D02992318
:1033A00081F0E0910201F09103018081892B8083FB
:1033B00080910201909103010E94DD2781110E94FA
:1033C000AA1980910201909103010C949727089506
:1033D0000C94E7199091060392FD10C098E0899F24
:1033E00090011124622B60931C020E949914809119
:1033F0001C028595859585950C94E8190C94991473
:1034000010921C0280E00C94E81990911C028095A7
:10341000892380931C02282F277091F4282F082ECF
:10342000000C330B9217130659F09091060392FD8E
:1034300007C08595859585950E94BA140C94001A4D
:1034400008959091060392FB222720F9281769F02E
:1034500080FB92F9909306038091050390910603F7
:103460000E946C1A82E00C94051A0895809106035C
:1034700082FB882780F991E089270C94211A81E04A
:103480000C94211A80E00C94211A6FEF7FEF90E0EA
:1034900080E00C94C13390E080E00E949D3321E0F5
:1034A000893E9E4F09F020E0822F089582E090E04F
:1034B0000C94953383E090E00C949533CF9384E0A3
:1034C00090E00E949533C82F82E290E00E949533ED
:1034D000982F8C2FCF910895CF93C92F682F84E018
:1034E00090E00E94A3336C2F82E290E0CF910C9485
:1034F000A333AB01BC018FE090E00C94B533AB017A
:10350000BC0183E190E00C94B53360E070E0CB0146
:103510000C947F1A60E070E0CB010E94791A0C9441
:10352000851A69EE7EEF90E080E00E94C13360E092
:1035300082E090E00E94A33360E083E090E00E948C
:10354000A3331092E0011092E1011092E201109277
:10355000E30160E084E090E00E94A33360E082E257
:1035600090E00E94A33360E085E090E00E94A333E6
:1035700060E086E090E00E94A3336FEF87E090E088
:103580000E94A33340E050E0BA0188E090E00E943E
:10359000B53360E08DE090E00E94A33340E050E05E
:1035A000BA0188E190E00E94B53360E087E190E0E5
:1035B0000E94A33340E050E0BA018CE190E00E9409
:1035C000B53370E060E080E290E00E94C13340E0FB
:1035D00050E0BA0188E190E00E94B5330C948A1A59
:1035E0000C94911A682F8EE090E00C94A3330E9403
:1035F000362960935402709355028093560290933B
:10360000570260935002709351028093520290933C
:10361000530208950E943629609354027093550214
:10362000809356029093570260934C0270934D0220
:1036300080934E0290934F02089585B7806885BFAE
:1036400085B7806885BF0895089508950C94241B5C
:1036500008950C94281B0E941D1B83E19EE10E948B
:103660007E270E94251B0C94261B81E008950C9454
:10367000351B089508950E94391B0C943A1B0E9433
:1036800021290E940B1F80E00E9406200E94302406
:103690000C94291B7F928F929F92AF92BF92CF92F0
:1036A000DF92EF92FF920F931F93CF93DF93CDB7EB
:1036B000DEB72A970FB6F894DEBF0FBECDBF0E94CB
:1036C000201FA82E81110E94F71A52E4852E52E085
:1036D000952E10E000E0702E802F0E94571E6C0186
:1036E000F401E190F1904F01E816F90609F468C081
:1036F0008091580281FD0E94601EC7018C259D2586
:10370000B12CEE24E394F12C9C012E213F21232B9C
:1037100009F450C00E94371B8823A9F0BE827F8223
:10372000CE20DF2081E0CD2809F480E088870E9448
:103730002A298160782F9A8789874E815F816885E1
:103740008A850E941910000F111FF801EE5BFD4FD2
:1037500080819181E826F926F182E0820E943F244F
:10376000182F81110E940A1B0E94D822A11001C0AB
:1037700011110E949F210E94882790914102891770
:10378000B1F10E948827809341022A960FB6F894DF
:10379000DEBF0FBECDBFDF91CF911F910F91FF9084
:1037A000EF90DF90CF90BF90AF909F908F907F90E1
:1037B0000C941110B394EE0CFF1CFBE0BF12A4CFCD
:1037C0000F5F1F4F0530110509F085CF8FEF8983FB
:1037D0008A831B820E942A298160782F9D838C8393
:1037E00049815A816B818D810E941910B7CF2A9629
:1037F0000FB6F894DEBF0FBECDBFDF91CF911F9102
:103800000F91FF90EF90DF90CF90BF90AF909F907F
:103810008F907F90089590E080E008950895972F0D
:1038200070E02BE0929F600D711D1124FB0197E366
:10383000899FE00DF11D1124EE0FFF1FE756FB4E8F
:10384000859194910895FC01EE0FFF1FEB58FA4EFD
:10385000859194910895CF93DF930E94391DEC01D7
:10386000811520E5920708F041C0811530E49307E7
:1038700008F0B4C0803E910518F5803C910508F031
:103880009DC0883A910570F4853A910508F08EC084
:1038900081309105F9F00097E9F00497D8F4D0E071
:1038A000C0E018C08F3B9105D0F7C85AD0E0CC0FCC
:1038B000DD1FCD5ADE4F0990D881C02DD4640AC0D7
:1038C0008115904258F4C11581E0D80718F4C83E1C
:1038D000D10528F7CE01DF91CF910895C11590E36E
:1038E000D90708F071C0CE019F706AC0811525E527
:1038F000920758F5811534E5930708F09EC08115AD
:1039000042E5940750F4C11581E5D80708F469C071
:10391000DC2FCC27C16FD06ADDCF982F9695969576
:103920009E0123703327C115D34508F077C0C1E04D
:10393000D0E002C0CC0FDD1F2A95E2F720E2929F73
:10394000C0011124C82BD92B67C0C11589E5D80740
:10395000A8F4C11598E5D90708F074C0C11526E58B
:10396000D20708F09CCF8C2F0E94D01DC82FD0E02A
:10397000DC2FCC27CC27DF71D062ACCFC1153AE564
:10398000D30708F464C0CE0190568115904208F028
:1039900086CF8D2F8F710E94D01D90E0982F8827A1
:1039A00088279F719C012C2BE901E6CFC55AD0E0F6
:1039B000CF57DE4FC881D0E0D0648CCF805C9109B6
:1039C0000E94231CEC0186CFCE019927D3FF03C0B0
:1039D000EC01D86C7FCFEC01D06C7CCFDF70D06A6B
:1039E00079CFCE01E4E096958795EA95E1F783706B
:1039F0002C2F26952695237090E2299F9001112463
:103A0000382B8C2F8370C1E0D0E002C0CC0FDD1FBB
:103A10008A95E2F7C22BD32BDC685CCFC1E0D0E003
:103A200002C0CC0FDD1F2A95E2F730E2939FC00160
:103A30001124C82BD92BDA684DCFD82FCC27C46FCF
:103A4000D06A48CFDC2FCC27C06FD06A43CF8C2FF1
:103A50008F700E94D01D34E0D695C7953A95E1F756
:103A6000CF709C2FEC01D06935CF0E940F1C0C94B5
:103A70002B1C82389105B1F1B0F48133910509F422
:103A800075C048F48932910509F469C08A329105FC
:103A900009F473C008958533910509F459C0893339
:103AA000910501F10895833E9105A9F138F4803E16
:103AB0009105F9F0823E910549F10895863E910500
:103AC000A9F1873E9105C9F1843E910519F5209130
:103AD000060321FF1FC08091050384FD14C087EEFB
:103AE00090E00895209105032370A1F080EE90E00E
:103AF00008952091050320FD47C03091060330FF53
:103B000009C024FF44C090E080E004C02091050378
:103B100022FDF7CF08952091050322FD3BC030918F
:103B2000060330FDE3CF24FFF5CFEDCF2091050351
:103B300023FFF0CF24FDE7CFD2CF2091050323FD53
:103B40002CC03091060331FFEECF84EE90E0089553
:103B50002091050325FFDECF89E290E008952091B2
:103B6000050325FFD7CF85E390E008952091050355
:103B700026FFD0CF8AE290E008952091050326FF2A
:103B8000C9CF81E390E0089589E390E0089583EE42
:103B900090E0089582EE90E0089586EE90E008951A
:103BA0009091050392FF06C0282F28712830F9F460
:103BB000877F846093FF06C0282F28712831F1F495
:103BC000877E84612091060320FF06C0382F38715C
:103BD0003830D9F4877F816021FF06C0282F2871F3
:103BE0002831D1F4877E816194FD877E0895282F46
:103BF00024712430F9F68B7F8860DCCF282F247164
:103C0000243101F78B7E8861DDCF382F317131305F
:103C100019F78E7F8860E0CF282F2171213121F79D
:103C20008E7E8861E1CF80E008950C94451A0E9451
:103C3000201F8FE39CE90197F1F700C000000E946C
:103C4000201F80E00E94571E80FF04C00E94151EA6
:103C50000C94912908950C94171E0E944B1A8111FF
:103C600002C00E94F01A0E94561A809358020E94C5
:103C70005E1A90930603809305030E942B1E0E94F8
:103C80005A1A682F70E090E080E00E94371460912B
:103C9000DC017091DD018091DE019091DF010C94D7
:103CA000711408950C94511E08950C94541EE82F1D
:103CB000F0E0EE0FFF1FEF5EFC4F808191810895D1
:103CC000089580EA8A95F1F7089500C008950C944C
:103CD000611EF894E82FE295EF70F0E031A1282FF3
:103CE0002F7081E090E001C0880F2A95EAF7982FA5
:103CF0009095932391A392A1892B82A37894089500
:103D0000CF93DF93CFE8D1E089918F3F11F00E94EC
:103D1000691E81E0C439D807B9F7C4E8D1E08991B8
:103D20008F3F11F00E94691E81E0CF38D807B9F7A4
:103D3000DF91CF910895AF92BF92DF92EF92FF9201
:103D40000F931F93CF93DF938C01D62EC62FD0E015
:103D5000CE0181579E4F7C01FC0120812F3F09F449
:103D60004DC0F894E22FE295EF70F0E031A12F7092
:103D700081E090E001C0880F2A95EAF7932F982BF5
:103D800091A392A18095892382A378940E94651EB5
:103D9000E4E8F1E04FE851E021E030E0B12CA12C63
:103DA00061916F3FA9F1A62FA295AF70B0E09096F8
:103DB0008C9190E06F7002C0959587956A95E2F7B7
:103DC00080FD26C0C901A82AB92A220F331F4E1729
:103DD0005F0731F7F70180818F3F11F00E94691E64
:103DE00061E0A114B10409F460E08D2D0E94671E0A
:103DF000CC0FDD1FC00FD11FB982A882DF91CF91F8
:103E00001F910F91FF90EF90DF90BF90AF900895BA
:103E100090E080E0D8CF0E94801E8AE0E1E1F3E0EC
:103E2000DF01982F1D929A95E9F7E7E0F3E0DF01B3
:103E30001D928A95E9F785E00E946B1F0C94870F0D
:103E4000FF920F931F93CF93DF93CDB7DEB72A97DF
:103E50000FB6F894DEBF0FBECDBF8E010F5F1F4FB0
:103E60008AE0F80111928A95E9F7F12C6F2DC801CB
:103E70000E949B1EF394F5E0FF12F8CF4AE050E059
:103E8000B80187E093E00E94F630FF24F394009796
:103E900009F4F12C892B41F08AE0F801A7E0B3E0A6
:103EA00001900D928A95E1F72F2D45E061E173E0D5
:103EB00087E093E00E946C1F0E948D0F8F2D2A9641
:103EC0000FB6F894DEBF0FBECDBFDF91CF911F912B
:103ED0000F91FF9008950895FF920F931F93CF9332
:103EE000DF93F82E092F162FD72FC42F222349F046
:103EF00081E080935B020E942A2990935A0280936A
:103F0000590280915B028823A1F08091590290911F
:103F10005A020E944229059760F0EF2DF02FA12F41
:103F2000BD2F90E080E0D0E08C179D0744F0109208
:103F30005B02DF91CF911F910F91FF900895219126
:103F400031912D933D930196EFCF0E94242B0E9437
:103F50003F1B0C94302B0E94342B0E944A1B0C9464
:103F60004E2B0E94B3280E940B2B0E942B1B0E94F9
:103F7000A51F0E94AB1F0E943B1BFBCFCF92DF927D
:103F8000EF92FF920F931F93CF93DF936C017B010E
:103F900064E670E088E70E947D26EC0197FD12C080
:103FA00010E000E0F601E00FF11F849164E670E09C
:103FB0000E94F726EC01892B29F40F5F1F4F0E1585
:103FC0001F0581F70E947A27CE01DF91CF911F91C3
:103FD0000F91FF90EF90DF90CF90089508950C948B
:103FE000EE1FEBE1F3E080E092E0DF019C011D9227
:103FF00021503040E1F7F0932005E0931F058FEF4B
:104000009FEF909388028093870208950E94EE1F8D
:104010000E94EF1F8093830280FD0FC080E8809391
:1040200082020E9477266DE070E08CE895E10E94A4
:10403000BE1F892B21F080E0089580E2F0CF8091AF
:10404000830263E070E081FD26C089E895E10E946B
:10405000BE1F892B81F76DE070E089E795E10E9432
:10406000BE1F892B41F70E943629605A75418F4F38
:104070009F4F60931B0570931C0580931D059093C3
:104080001E050E94F11F81E08093860280938502C5
:1040900010928402089586E895E1D9CF209182029A
:1040A00036E0839FC0011124629F800D911D112471
:1040B000811522E0920714F090E080E0855E9C4F2D
:1040C0009093200580931F05089520911F0530913E
:1040D00020052551334040918202642F70E0C901D0
:1040E0000E945C30481B463010F4240F311D21150E
:1040F00082E0380710F030E020E0255E3C4F30933E
:10410000200520931F0508951F93CF93DF93162F4B
:104110008A3031F481E0DF91CF911F910C94FE2021
:104120008D3011F480E0F7CFC0911F05D0912005AC
:1041300096E0FE01ACE5B2E001900D929A95E1F7B0
:10414000803EC8F086E0FE0111928A95E9F71111D0
:104150001EC0C0911F05D091200546E050E0BE0171
:104160008CE592E00E94F630892BF9F4DF91CF9133
:104170001F910C946520F6E08F9FB00111246756C3
:104180007A4E46E050E0CE010E94ED30E0CFE09163
:104190001F05F09120059F012A5F3F4F2E173F0713
:1041A000C1F2808180958193F9CFCB51D340CE016C
:1041B00025E0969587952A95E1F721E030E0A90161
:1041C00002C0440F551F8A95E2F7CA014091870249
:1041D00050918802842B952B259645E0D695C7955E
:1041E0004A95E1F702C0220F331FCA95E2F7822BEE
:1041F000932B9093880280938702B8CFCF93382F68
:10420000E0911F05F0912005EB51F34020918202CF
:10421000622F70E0CF010E945C30281B822F332375
:1042200069F066E00E945030C82FC15010F4CF9161
:10423000089560E080E20E948420F7CF9F01280F5C
:10424000311D2115324018F080E0F0E0E0E08E0FE3
:104250009F2F911D855E9C4F9093200580931F0595
:10426000E6CFFF920F931F93CF93DF93EC01F62ECF
:10427000FC0101900020E9F78F0101501109C017DE
:10428000D10730F0DF91CF911F910F91FF900895EA
:104290006F2D89910E948420F2CF1F93CF93DF93DB
:1042A000EC01162FFE018491811104C0DF91CF91A2
:1042B0001F910895612F0E9484202196F3CFCF9300
:1042C000DF9320911F05309120052B513340A90128
:1042D000460F571F4130524020F060E072E0621BF1
:1042E000730B4091870250918802FC01C901620F53
:1042F000731FC1E0D0E08617970738F0509388020B
:1043000040938702DF91CF9108952491DC01A55E4F
:10431000BC4F3C91321781F02C939C01A5E036955F
:104320002795AA95E1F7DE0102C0AA0FBB1F2A95C7
:10433000E2F79D014A2B532B01963196DCCF8091F9
:104340008602811103C08091850208950E9436295A
:10435000605A75418F4F9F4F60931B0570931C05EA
:1043600080931D0590931E05809185028111EBCFEE
:1043700062E070E087E795E10E94BE1F892B19F784
:1043800081E080938502DFCF2F923F925F926F9200
:104390007F928F929F92AF92BF92CF92DF92EF92D5
:1043A000FF920F931F93CF93DF9380918602882310
:1043B00069F020918702309188022115310531F092
:1043C0008091840261E070E0882399F0DF91CF91C1
:1043D0001F910F91FF90EF90DF90CF90BF90AF9023
:1043E0009F908F907F906F905F903F902F90089557
:1043F0008F5F082F10E01B01082E02C0220C331C17
:104400000A94E2F7A90142215321452B89F39091A7
:10441000830290FD44C08295880F807680930601C8
:104420009801369527953695279520930901815E49
:104430008093070110920A0124E630E047E050E043
:1044400064E071E088E70E942627892B09F0BECF3F
:10445000A80125E0440F551F2A95E1F780918302BA
:1044600080FD2BC0455E5C4F04E610E020E230E0AA
:1044700060E488E70E944D27892B09F0A7CF0E94AE
:104480009F21E101C095D09580918702909188028B
:10449000C823D923D0938802C093870297CF880F6F
:1044A000880F880F8093060110920901895F80931D
:1044B000070183E080930A01BFCFE2E6F2E080E2E9
:1044C000DF011D928A95E9F7A8E9B1E004E911E05E
:1044D0008CE9C82E81E0D82E97E0592E772473946A
:1044E0008D91E80129918E01240F352F311D255E14
:1044F0003C4FE82FF0E0EE59FD4F90E080E0652C56
:10450000681A872C082E01C0880C0A94EAF77901F2
:10451000A12CE701B9907E01B820662D6A19677059
:10452000962E062E000C770BDB2D01C0DD0F9A9422
:10453000EAF77195619571096770772701C0B694A4
:104540006A95EAF7BD2A6081962E9B289082A394F3
:1045500068E0A612DECF019631968830910579F693
:10456000CA16DB0609F0BCCF04E610E020E230E01A
:1045700042E652E07DCF80918502909186029111B2
:1045800003C091E089270895882369F062E070E014
:1045900085E795E10E94BE1F892B19F08091850265
:1045A00008951092850280918502EBCF0C949A0EAB
:1045B0000F931F9380918602882319F160E080E0B9
:1045C0000E944E200E94D6220E94C4218091850222
:1045D0008823B9F00E94362900911B0510911C0513
:1045E00020911D0530911E05601B710B820B930BF2
:1045F0006F3F7F4F8F4F9F4720F41F910F910C9477
:10460000BB221F910F910895CF93DF93EC01FB0123
:104610008281882309F420C1C430FDE5DF07C8F595
:10462000CB3F9CE5D90730F49E0122503C45243114
:10463000310598F50E945E1A909306038093050356
:10464000C031FCE5DF0709F4E0C008F061C0C83004
:104650009CE5D90709F4CBC088F5C430FCE5DF0739
:1046600009F4B3C0E8F4C2309CE5D90709F4A7C047
:10467000809105038260C330DC4509F4A3C08091BA
:104680000503909106030E946C1A0E94DE1380E0DD
:1046900004C0C236EDE5DE0769F2DF91CF910895DF
:1046A000809105038061C630FCE5DF0709F48AC00C
:1046B00008F48FC080910503806284C08091050357
:1046C0008D7FCC309CE5D90709F47CC070F48091D3
:1046D00005038C60CA30FCE5DF0709F473C008F4F9
:1046E0008AC0809105038E7F6DC080910503877F0E
:1046F000CE309CE5D90709F465C0809105038B7F16
:10470000CF30DC4508F45EC0809105038F7E5AC02F
:10471000CD3FFCE5DF0709F474C040F5C4319CE5EA
:10472000D90709F48AC058F4C231FCE5DF0709F45F
:1047300074C008F46EC080910503837F43C0CB3FF3
:104740009CE5D90709F449C008F04DC0C531DC45E6
:1047500009F095CF8091050382FB992790F921E01C
:10476000922790FB82F990FB83F92CC0C1308DE534
:10477000D80709F458C088F4809106038360CF3FBE
:10478000ECE5DE0769F1809106038D7FC115DD45FB
:1047900038F1809106038C7F23C0C3308DE5D807A4
:1047A00009F458C008F452C0C236DD4509F067CF9D
:1047B00090910503892F8F7E94FF806103C08091C3
:1047C00005038160809305035ACF809105038460BF
:1047D000F9CF809105038860F5CF80910603816051
:1047E000809306034CCF809106038260F9CF8091BD
:1047F00005038064E7CF0E94DE1380910503806883
:10480000E1CF809106038E7FEBCF809105038F7DF2
:10481000D9CF809105038F7BD5CF0E94DE13809185
:1048200005038F77CFCF80910603982F90959170D5
:104830008E7F892B90FB81F9D3CF0E94DE1390915C
:104840000503892F97FB87F98058BCCF81E00E9430
:10485000F21A15CF80E0FBCF81E01FCF0C94260F1A
:104860008098889A8198899A8FB18170799905C0CA
:1048700090E0892B80938B02089592E0FACFE0912B
:104880008B02EE0FEE0FE0938B024FB1842F8170FD
:104890004FB141FB222720F941FF02C022E030E066
:1048A000822BE82BE0938B02EF70F0E0E456FE4F92
:1048B000808190918A02890F80938A0220E084305F
:1048C00054F0809189028F5F8093890261E080E0DB
:1048D0000E942E2421E080918A028D3F54F4809121
:1048E000890281508093890260E080E00E942E243A
:1048F00021E080918A02082E000C990B64E070E0A0
:104900000E94703080938A02822F0895CF93DF93A4
:10491000EB0186319C4511F50E9464199A81992317
:1049200099F08A7A91E009F490E090938C028111D9
:1049300009C089E20E943F190E94B41980E0DF910A
:10494000CF91089585E3F6CF80918C02811104C048
:1049500089E20E944619F0CF85E3FBCF81E0EFCFDB
:104960000F931F93CF93DF93C42FD22FFC0182812B
:104970008823C9F040938F020E942A2990938E02C7
:1049800080938D0280E28C0F883008F050C0C77091
:1049900081E001C0880FCA95EAF7DF91CF911F919E
:1049A0000F910C94541110918F02141335C0809103
:1049B0008D0290918E020E944229883C910560F5FB
:1049C000C0E2CD0F1D17B9F080E2810F883040F4AE
:1049D000177081E001C0880F1A95EAF70E945B11F9
:1049E000C83048F481E09D2F977001C0880F9A95D8
:1049F000EAF70E945411802F0E944C11C830B8F47D
:104A0000D77081E001C0880FDA95EAF7DF91CF9186
:104A10001F910F910C945B1180E28C0F883038F459
:104A2000C77081E001C0880FCA95EAF7EFCFDF9128
:104A3000CF911F910F9108950F939C01CB01243FBB
:104A40004CE5340759F1A8F4293DFCE53F0701F195
:104A50002A3D4CE53407D1F1283D3C4591F406E26E
:104A600021EE41EE68ED7CE50E94B02480E00F91DC
:104A70000895263FFCE53F07E9F0B0F0273F3C45AD
:104A8000F9F0FC018281882339F110928F02EFCF77
:104A900007E225EE45EE69ED7CE5E6CF06E221EE84
:104AA00040EE64EF7CE5E0CF07E225EE44EE65EFF3
:104AB0007CE5DACF06E221EE42EE66EF7CE5D4CF6C
:104AC00007E225EE46EE67EF7CE5CECF08E221E077
:104AD00045EE6AED7CE5C8CF81E0C9CF8091CD027B
:104AE00008959C013056211540E2340748F0305EAD
:104AF000211540E1340720F0315C21153F4178F465
:104B000099279C01245031092432310578F027522D
:104B1000310981E02E30310550F080E008958F3F5B
:104B2000910579F370F390E080E0EBCF81E0089598
:104B30000C9471250E949825882341F0E0919202FF
:104B4000F0E0ED56FD4F80818F5F808308958F9256
:104B50009F92AF92BF92CF92DF92EF92FF92CF934C
:104B6000C09093020C2C000CDD08EE08FF08209189
:104B70000B0130E081E090E0281739070CF0A4C069
:104B80006091C9027091CA028091CB029091CC02CF
:104B90000E9451294B015C01C0910B0185E68816EA
:104BA0009104A104B104FCF08091920290E001967E
:104BB00062E370E00E947030809392028D569D4FA8
:104BC000FC0110828C2FC13308F080E38F5F80934B
:104BD0000B010E9436296093C9027093CA02809328
:104BE000CB029093CC02F2E0CF16D104E104F104A1
:104BF0000CF479C0A0E6BAEEA70196010E94CB3072
:104C00006B017C0184E6C89F90011124032E000CE7
:104C1000440B550B280D391D4A1D5B1DA5E0B0E066
:104C20000E94CB309B01AC01C701B6010E948430C9
:104C300069017A01E1EFCE16D104E104F10428F014
:104C400080EFC82ED12CE12CF12C6091C50270911F
:104C5000C6028091C7029091C8020E9451294B015F
:104C60005C01F5E68F169104A104B10484F00E9462
:104C700036296093C5027093C6028093C702909351
:104C8000C8028091CD0280939102C0929002C0919F
:104C90009102A0919002AC1BBB0BA50194010E9454
:104CA000D63024E630E040E050E00E94A630C20F4B
:104CB000C093CD02CF91FF90EF90DF90CF90BF9047
:104CC000AF909F908F900895FC01ED56FD4F40816D
:104CD000042E000C550B660B770BC40ED51EE61E7A
:104CE000F71E019649CFC12CD12C7601AECF109280
:104CF000B9008CE08093B80008959F92AF92BF9264
:104D0000CF92DF92EF92FF920F931F93CF93DF9397
:104D1000B82EEB010E942A296C01EE24E394F12CB9
:104D2000C431D10560F025E0E22EF12CCF3FDC0745
:104D300031F0CE0164E170E00E945C307B0184EAD6
:104D4000A82E94E8992E1092BC00A092BC000E945C
:104D50002A298C018091BC0087FF0DC08091B90089
:104D6000887F883039F18091B900887F803111F1D6
:104D70000FEF1FEF09C00E942A29801B910B8E158F
:104D80009F0540F30EEF1FEFCF3FDC07E1F2C601B6
:104D90000E9442298C179D07B0F2C801DF91CF9184
:104DA0001F910F91FF90EF90DF90CF90BF90AF9049
:104DB0009F900895B092BB009092BC000E942A2957
:104DC0008C018091BC0087FF0AC08091B900887F68
:104DD000883111F0803461F610E000E0DECF0E94EF
:104DE0002A29801B910B8E159F0558F3CBCF0F936B
:104DF0001F93CF93DF93EB018093BB0084E88093F4
:104E0000BC000E942A298C018091BC0087FF11C040
:104E10002091B900287F81E090E0283211F490E0E1
:104E200080E0919581959109DF91CF911F910F912C
:104E30000895CF3FDC0741F30E942A29801B910B84
:104E40008C179D0708F38EEF9FEFEECFCF92DF9286
:104E5000EF92FF920F931F93CF93DF936B018A0121
:104E60007901B9010E947D26E6010C0D1D1DC017B8
:104E7000D10761F424E92093BC00DF91CF911F9109
:104E80000F91FF90EF90DF90CF90089597FDF2CFB4
:104E9000B70189910E94F726EACFCF92DF92EF9275
:104EA000FF920F931F93CF93DF93C62F6A0179016F
:104EB000B8010E947D2697FD0CC0B8018C2F0E947E
:104EC000F726E601EC0CFD1CCE15DF0511F097FF6F
:104ED0000CC024E92093BC00DF91CF911F910F916A
:104EE000FF90EF90DF90CF900895B80189910E94D4
:104EF000F726EACF84E98093BC0008959093AD0132
:104F00008093AC0108959093D3028093D2020895C8
:104F1000E091D202F091D302309721F00190F0811C
:104F2000E02D099480E008950E9488270895E0917B
:104F3000D202F091D302309799F0209118012223E8
:104F400059F02091050327FF07C0DC012C91119631
:104F50002C93119726E02C930280F381E02D099485
:104F600008952091D0023091D1022817390771F0AD
:104F70009093D1028093D002E091D202F091D302BB
:104F8000309721F00680F781E02D09940895209153
:104F9000CE023091CF022817390771F09093CF02DB
:104FA0008093CE02E091D202F091D302309721F0AB
:104FB0000084F185E02D09940895FC0132968091DA
:104FC0001801882321F0809105039EE187FF96E078
:104FD00080E0915008F4089521912223D1F38F5F4E
:104FE000F8CF662301F1209118012223F1F02091DE
:104FF000050327FF1AC0462F4695469546954E3124
:1050000090F4677021E030E002C0220F331F6A95F0
:10501000E2F7840F911DFC01828190E0282339235F
:1050200081E0232B69F480E00895FC013296089614
:105030002191261721F0E817F907D1F7F4CF81E085
:1050400008959C01FC0132969FEF80E04191461744
:1050500051F09F3F19F4411101C0982F8F5F8630A6
:10506000A9F79F3F09F40895290F311D97FD3A953F
:10507000F90162830895FC01329608962191261366
:1050800003C0DF0111971C92E817F907B9F70895DB
:10509000E62FE695E695E695EE3168F4E80FF92FF0
:1050A000F11D677021E030E001C0220F6A95EAF738
:1050B0008281822B82830895E62FE695E695E69518
:1050C000EE3170F4E80FF92FF11D677021E030E048
:1050D00001C0220F6A95EAF7209582812823228356
:1050E000089520911801222329F02091050327FD1E
:1050F0000C9448280C94212820911801222329F08F
:105100002091050327FD0C945C280C943B28FC019E
:10511000329680911801882351F08091050387FF12
:1051200006C08EE1DF011D928A95E9F7089586E0B9
:10513000F9CF08950C949928811105C081E08093DE
:10514000D4020C949A2882E0FACF83E08093D402B0
:105150000C949A280C949C2881E08093D4020C949F
:105160009A280C94AC28089580912905843031F157
:105170000E94910F1092D50288E190E020E40FB6D2
:10518000F894A895809360000FBE2093600083B7C9
:10519000817F846083BF83B7816083BF7894889563
:1051A00083B78E7F83BF0FB6F894A8958091600077
:1051B000886180936000109260000FBE089508958A
:1051C0000895CF930E94DF280E94201F0E94E028AC
:1051D000C0E08C2F0E94571E892B31F4CF5FC53061
:1051E000C1F780E0CF91089581E0FCCF0E94DE13EB
:1051F0000C9403101F921FB61F9211248F939F933C
:10520000AF93BF938091D502811113C08091210586
:1052100090912205A0912305B09124054196A11DEE
:10522000B11D8093210590932205A0932305B0938F
:105230002405BF91AF919F918F911F901FBE1F902A
:10524000189582E084BD93E095BD9AEF97BD809359
:105250006E0008952FB7F894809121059091220552
:10526000A0912305B09124052FBF08952FB7F8947E
:10527000609121057091220580912305909124056C
:105280002FBF08959C014FB7F8948091210590910C
:105290002205A0912305B09124054FBF821B930BDB
:1052A0000895CF92DF92EF92FF922FB7F894C090BB
:1052B0002105D0902205E0902305F09024052FBF12
:1052C000A7019601261B370B480B590BCA01B901E0
:1052D000FF90EF90DF90CF90089578941F921FB6C3
:1052E0001F9211248F939F93AF93BF9380912105B9
:1052F00090912205A0912305B09124050196A11D4E
:10530000B11D8093210590932205A0932305B093AE
:105310002405BF91AF919F918F911F901FBE1F9049
:10532000189587E797E7909301088093000888E134
:105330009AE00FB6F894A895809360000FBE909302
:105340006000FFCF8091F90208950895CF93DF9315
:10535000EC01809118018823B1F18091050387FF4A
:1053600032C060E282E08093E9008FEF9091E80024
:10537000815095FD06C095ED9A95F1F700008111D9
:10538000F5CF8091E80085FF1BC08091180170E087
:1053900050E040E0811104C050E040E068E070E07F
:1053A000CE010E94BF2B8091E8008E778093E800A9
:1053B00080E2FE01A9EDB2E001900D928A95E1F73D
:1053C000DF91CF91089568E081E0CDCF8093D60240
:1053D0007093D8026093D70280912905843001F53B
:1053E00082E08093E9008FEF9091E800815095FD75
:1053F00006C095ED9A95F1F700008111F5CF8091E7
:10540000E80085FF0DC050E040E063E070E086ED0D
:1054100092E00E94BF2B8091E8008E778093E80095
:105420000895BC0184E00C94E629BC0183E00C944F
:10543000E629089580912805811109C00E944F2D09
:105440000E94AC2D8091E20084608093E200089578
:105450001092280508950C94AC286091250581E0F0
:10546000611101C080E00C94A5289091290581E08C
:10547000943009F080E0609125050C94AA2842E060
:1054800061EC81E00E94CB2C42E261EC82E00E9460
:10549000CB2C9091290581E0943009F080E0609157
:1054A00025050C949C2880912B05833009F460C05D
:1054B00030F48130C9F1823009F49CC008958A30FB
:1054C00009F488C08B3009F46EC0893009F04FC0F0
:1054D00080912A05813209F04AC080912E05909171
:1054E0002F05029708F043C08091E800877F8093E2
:1054F000E8008091E80082FF36C09091F30080912F
:10550000F200029731F48091F100813011F0863081
:1055100021F48091F1008093F9028091E8008B776B
:105520008093E8000C94FF2C80912A05813AF9F4CD
:105530008091E800877F8093E80080912E0590910C
:105540002F05892B61F460E289ED92E070E00E9402
:105550000E2C8091E8008B778093E800089560E03E
:1055600090E080E0F3CF809129058111C2CF0895AA
:1055700080912A05813AD9F780912E0590912F05C7
:10558000892BA9F78091E800877F8093E8008091BC
:10559000E80080FFFCCF809118018093F10080919A
:1055A000E8008E77BDCF80912A05813201F7809186
:1055B0002E0590912F05892BD1F68091E800877FE9
:1055C0008093E8000E94FF2C80912C0580931801A5
:1055D0000C94DE1380912A05813249F68091E8000F
:1055E000877F8093E8000E94FF2C80912D05809397
:1055F000FA02089580912A05813A09F0B8CF809186
:10560000E800877F8093E8008091E80080FFFCCF6E
:105610008091FA02C2CF84B7877F84BF0FB6F89417
:10562000A89580916000886180936000109260006E
:105630000FBE80E890E00FB6F894809361009093DD
:1056400061000FBE0C94B1280E944F2D0E94AC2D1A
:10565000E2EEF0E080818460808378940C943530B1
:105660008CE091E00C948327809129058530A9F482
:1056700080912905853011F00C94F6280E94B428F9
:10568000809127058823A1F30E94E128882381F3D4
:105690000E94A92B0E94DE13EBCF089508950C946D
:1056A000512B292F33272330310519F168F421308C
:1056B000310509F444C02230310509F445C090E0B9
:1056C00080E030E020E025C02132310549F122326E
:1056D0003105A9F780E490E023EC3BE16115710509
:1056E000C1F08DE690E026E53BE16130710589F07F
:1056F000E6CF99278130910581F0009729F0029734
:10570000F1F6E9EDFAE102C0E5E0FBE1849190E019
:105710009F01FA01318320830895EDEEFAE1F6CF7F
:1057200089E090E02BE13BE16115710591F389E09F
:1057300090E024E33BE16130710559F3C0CF82E191
:1057400090E024E43BE1E5CF8BE390E029E03BE10E
:10575000E0CF80E189BD82E189BD09B400FEFDCFC3
:105760008091D8008F7D8093D8008091E000826086
:105770008093E0008091E00081FDFCCF0895AF921E
:10578000BF92CF92DF92FF920F931F93CF93DF933D
:105790006C01EB018A010E941E2DF82E811123C09D
:1057A0000115110539F0F80180819181C81BD90BD1
:1057B000C80ED91EB12CA12C2097A9F08091E80029
:1057C00085FD22C08091E8008E778093E800011566
:1057D0001105A1F0F80180819181A80EB91EB18256
:1057E000A08285E0F82E8F2DDF91CF911F910F9130
:1057F000FF90DF90CF90BF90AF9008950E941E2D34
:105800008823D1F2F82EEFCFF60181916F018093BA
:10581000F1002197FFEFAF1ABF0ACECFFC018091B4
:1058200030059091310586179707A0F06115710535
:1058300029F49091E8009E779093E80090E061153C
:10584000710551F4911108C08091E80082FF34C0C5
:1058500080E00895BC01F2CF809129058823C1F131
:105860008530C1F18091E80083FD30C08091E8006F
:1058700082FDEACF8091E80080FFE1CF8091F300C4
:105880002091F200382F6115710519F0283031058B
:1058900058F091E02830310509F090E02091E800BF
:1058A0002E772093E800CBCF81918093F100615057
:1058B00071092F5F3F4FE7CF80912905882341F081
:1058C000853041F08091E80083FFBECF81E00895EC
:1058D00082E0089583E00895FC0180913005909165
:1058E000310586179707A0F06115710529F480919D
:1058F000E8008E778093E80090E06115710551F41F
:10590000911108C08091E80082FF35C080E00895C1
:10591000BC01F2CF809129058823C9F18530C9F1F6
:105920008091E80083FD31C08091E80082FDEACFDC
:105930008091E80080FFE1CF8091F3002091F20098
:10594000382F6115710519F02830310558F091E0B4
:105950002830310509F090E08091E8008E7780933F
:10596000E800CBCF84918093F100319661507109AA
:105970002F5F3F4FE6CF80912905882341F0853086
:1059800041F08091E80083FFBDCF81E0089582E07F
:10599000089583E00895982F973028F08F708093B2
:1059A000E90081E008959093E900242F762F50E0DC
:1059B000981731F07091EC002091ED005091F000BB
:1059C00021FD02C09F5FE8CF3091EB003E7F309316
:1059D000EB003091ED003D7F3093ED003091EB0016
:1059E00031603093EB007093EC002093ED00509306
:1059F000F0002091EE0027FDE5CF80E00895809132
:105A00002A0587FF13C08091E80082FF06C08091BD
:105A1000E8008B778093E80004C08091290581110C
:105A2000F2CF0895809129058823D9F38091E80069
:105A300080FFF8CF8091E8008E77ECCF2091E400D2
:105A40003091E50095E6A9012091EC00822F81704C
:105A500020FF06C08091E80080FF06C080E0089526
:105A60002091E80022FD1AC080912905882389F041
:105A7000853089F08091EB0085FD0FC02091E40016
:105A80003091E50042175307F9F29150E1F684E0B6
:105A9000089582E0089583E0089581E008950E94CA
:105AA000BD2D0E94C52DE0EEF0E0808181608083F5
:105AB000E8EDF0E080818F77808319BCA7EDB0E03E
:105AC0008C918E7F8C9380818F7E808310922805AD
:105AD00008950F931F93CF93DF930E94BD2D0E94D3
